:1000000033C0000044C0000042C0000040C00000F7
:100010003EC000003CC000003AC0000038C00000F4
:1000200036C0000034C0000032C0000030C0000004
:100030002EC000002CC000002AC0000028C0000014
:1000400026C0000024C0000022C0000020C0000024
:100050001EC000001CC000001AC0000018C0000034
:1000600016C0000014C0000011241FBECFEFD8E05E
:10007000DEBFCDBF11E0A0E0B1E0E4E8F1E002C0F6
:1000800005900D92A430B107D9F702D079C0B8CF4E
:1000900050D0FECF84B1866084B9E0E8F0E0808182
:1000A000826A8083E1E8F0E08081886180838FEF5D
:1000B0009FEF909387008093860080818260808389
:1000C0000895239AE0EBF0E0808183688083E1EB80
:1000D000F0E0808182608083089564E645D0282F17
:1000E00030E0309521953F4FC901089564E63CD03A
:1000F00081950895DF93CF9300D00F92CDB7DEB7EF
:100100007A838B83862FE9DF909389008093880020
:100110008A81ECDF90E090938B0080938A008B8142
:10012000E5DF8093B3000F900F900F90CF91DF9198
:100130000895DF93CF9300D00F92CDB7DEB7DE01E5
:100140001196E0E0F1E083E001900D928150E1F73B
:10015000A1DFB7DF69817A818B81CCDF0F900F90AF
:100160000F90CF91DF910895991B79E004C0991FFA
:10017000961708F0961B881F7A95C9F78095089501
:04018000F894FFCF21
:04018400646464004B
:00000001FF
