:1000000033C000004CC000004AC0000048C00000DF
:1000100046C0000044C0000042C0000040C00000D4
:100020003EC000003CC000003AC0000038C00000E4
:1000300036C0000034C0000032C0000030C00000F4
:100040002EC000002CC000002AC0000028C0000004
:1000500026C00000B4C0000022C0000020C0000084
:100060001EC000001CC0000011241FBECFEFD8E04E
:10007000DEBFCDBF11E0A0E0B1E0EEE9F4E002C0E8
:1000800005900D92A430B107D9F711E0A4E0B1E0DA
:1000900001C01D92AC30B107E1F702D0FEC1B0CF74
:1000A0007ED1D4D101D0FFCFECE7F0E08081806435
:1000B0008083EAE7F0E080818F6880837894EAE7C4
:1000C000F0E08081806480830895DF93CF9300D037
:1000D0000F92CDB7DEB7823051F0833018F4813003
:1000E00091F408C0833049F0843069F408C070E0AE
:1000F00084E60BC070E080E004C074E605C074E6DE
:1001000084E664E603C070E080E060E090E00F9079
:100110000F900F90CF91DF9108954091040150917D
:10012000050160910601709107016417750780F45D
:1001300080910801909109018417950748F48091F6
:100140000A0190910B018417950710F481E008953E
:100150004617570780F4809108019091090186178E
:10016000970748F480910A0190910B018617970731
:1001700010F482E00895209108013091090142179E
:10018000530760F46217730748F480910A01909155
:100190000B018217930710F483E0089580910A0100
:1001A00090910B014817590740F46817790728F414
:1001B0002817390710F484E0089580E008951F920D
:1001C0000F920FB60F9211242F933F934F935F938B
:1001D0006F937F938F939F93AF93BF93EF93FF930F
:1001E000DF93CF93CDB7DEB72F97DEBFCDBF809122
:1001F0007C00823409F44EC0833430F4803441F002
:10020000813409F08AC025C0833409F086C063C0F8
:100210008091780040917900342F20E090E0282BE5
:10022000392B309305012093040177DF4EDF6D8772
:100230007E878F87DE011196FE013D9683E0019057
:100240000D928150E1F769817A818B81E0D081E460
:1002500062C08091780040917900342F20E090E0D6
:10026000282B392B309307012093060156DF2DDF11
:100270006D877E878F87DE011496FE013D9683E0B1
:1002800001900D928150E1F76C817D818E81BFD00C
:1002900082E441C08091780040917900342F20E0C1
:1002A00090E0282B392B309309012093080135DF8A
:1002B0000CDF6D877E878F87DE011796FE013D96E6
:1002C00083E001900D928150E1F76F8178858985F7
:1002D0009ED083E420C08091780040917900342F33
:1002E00020E090E0282B392B30930B0120930A015A
:1002F00014DFEBDE6D877E878F87DE011A96FE01A5
:100300003D9683E001900D928150E1F76A857B85EF
:100310008C857DD080E480937C00FFDE1FD08091AF
:100320007A00806480937A0085B190E2892785B94C
:100330002F96DEBFCDBFCF91DF91FF91EF91BF919F
:10034000AF919F918F917F916F915F914F913F916D
:100350002F910F900FBE0F901F901895823069F06B
:10036000833018F4813099F405C0833049F084302B
:1003700071F409C08BB1837F08C05B985A9A0895C5
:100380005A985B9A08958BB18C608BB908958BB1A4
:100390009BB19C609BB99BB1982B9BB908958AB186
:1003A0008C638AB9259A5C9A2D9A84E0D7CF84B160
:1003B000866084B9E0E8F0E08081826A8083E1E8C9
:1003C000F0E08081886180838FEF9FEF90938700BA
:1003D000809386008081826080830895239AE0EB79
:1003E000F0E0808183688083E1EBF0E080818260CF
:1003F0008083089564E645D0282F30E0309521951C
:100400003F4FC901089564E63CD081950895DF937C
:10041000CF9300D00F92CDB7DEB77A838B83862F30
:10042000E9DF90938900809388008B81ECDF90E076
:1004300090938B0080938A008A81E5DF8093B300DC
:100440000F900F900F90CF91DF910895DF93CF938E
:1004500000D00F92CDB7DEB7DE011196E0E0F1E0FB
:1004600083E001900D928150E1F7A1DFB7DF698150
:100470007A818B81CCDF0F900F900F90CF91DF911D
:100480000895991B79E004C0991F961708F0961BF0
:0E049000881F7A95C9F780950895F894FFCFDC
:04049E00646464002E
:00000001FF
